:0300000002077B79
:0C077B00787FE4F6D8FD75815D0207C2AE
:0A0D4E000000000100020003000491
:100C3E007D017C00ED25E0FFEC33FE744E2FF58236
:100C4E00740D3EF583E493FE740193FFED25E024CD
:100C5E0010F8A60608A6070DBD00010CED64054CA4
:050C6E0070D20209D75D
:090B8000120656AB2DAA2EA92F76
:060B89008B3D8A3E893F0E
:100B8F007D017C00AB3DE53F2402F9E4353EFAEDF3
:100B9F0025E0FFEC33FEE92FF9EA3EFAE4F5F01217
:100BAF0006370DBD00010CED64054C70D7AB3DAAA7
:090BBF003EA93FE4F5F0020637FF
:0F0B320085303A85313B85323CAB2DAA2EA92F59
:100B41008B378A3889397580FFD2B4D2B5D2B3AB2D
:100B51003AAA3BA93C900002E4F5F0120656900037
:100B610004E4F5F0120656E4F5F0120637E4F55CFC
:0F0B7100F55DF552F553AB37AA38A939020B8958
:06000E008B2D8A2E892FC4
:10001400E4F535F536120905AB30AA31A932900062
:100024000612057A640345F070030204E2AB2DAABC
:100034002EA92F12054FC39404E5F06480948040E8
:10004400030202D7E54060030202D7E54114B40E6F
:100054000040030202D790006875F003A4C583250D
:10006400F0C583730200920200C70201020202D7A4
:1000740002013D0201780201B30202D70201EE023D
:1000840002290202630202D70202D702029DE4752A
:10009400F0011205B2AB2DE52F2402F9E4352EFA56
:1000A400C002C001AA2EA92F12054F25E0FFE5F0DA
:1000B40033FED001D002E92FF9EA3EFAE475F001EB
:1000C4000202D4AB2DAA2EA92FE475F0011205B2B9
:1000D400AB2DE52F2402F9E4352EFAC002C001AAA3
:1000E4002EA92F12054F25E0FFE5F033FED001D0F5
:1000F40002E92FF9EA3EFAE475F0020202D4AB2DCC
:10010400AA2EA92FE475F0011205B2AB2DE52F2418
:1001140002F9E4352EFAC002C001AA2EA92F120555
:100124004F25E0FFE5F033FED001D002E92FF9EAD4
:100134003EFAE475F0030202D4AB2DAA2EA92FE4F3
:1001440075F0011205B2AB2DE52F2402F9E4352E2A
:10015400FAC002C001AA2EA92F12054F25E0FFE51F
:10016400F033FED001D002E92FF9EA3EFAE475F04B
:10017400040202D4AB2DAA2EA92FE475F0011205B6
:10018400B2AB2DE52F2402F9E4352EFAC002C001EA
:10019400AA2EA92F12054F25E0FFE5F033FED0016A
:1001A400D002E92FF9EA3EFAE475F0050202D4AB75
:1001B4002DAA2EA92FE475F0011205B2AB2DE52F5F
:1001C4002402F9E4352EFAC002C001AA2EA92F1286
:1001D400054F25E0FFE5F033FED001D002E92FF909
:1001E400EA3EFAE475F0060202D4AB2DAA2EA92F3A
:1001F400E475F0011205B2AB2DE52F2402F9E435C4
:100204002EFAC002C001AA2EA92F12054F25E0FF25
:10021400E5F033FED001D002E92FF9EA3EFAE475A5
:10022400F0070202D4AB2DAA2EA92FE475F0011217
:1002340005B2AB2DE52F2402F9E4352EFAC002C035
:1002440001AA2EA92F12054F25E0FFE5F033FED0B9
:1002540001D002E92FF9EA3EFAE475F0088071ABA7
:100264002DAA2EA92FE475F0011205B2AB2DE52FAE
:100274002402F9E4352EFAC002C001AA2EA92F12D5
:10028400054F25E0FFE5F033FED001D002E92FF958
:10029400EA3EFAE475F0098037AB2DAA2EA92FE4C3
:1002A40075F0011205B2AB2DE52F2402F9E4352EC9
:1002B400FAC002C001AA2EA92F12054F25E0FFE5BE
:1002C400F033FED001D002E92FF9EA3EFAE4F5F06A
:1002D400120637E541640C45407012120B32AB3004
:1002E400AA31A932900006E4F5F0120656E54164FD
:1002F4000D4540701EAB2DAA2EA92F12054FD39485
:1003040000E5F064809480400A74FFF5F01205B2B1
:100314007580FFAB30AA31A93212054F45F0600356
:100324000203D9E541640F454060030203D9AB2DB4
:10033400AA2EA92FF5F0120637E5364535600302DB
:1003440003D9F533753401AB2DE52F2402F9E435D7
:100354002EFAE53425E0FFE53333FEE92FF9EA3ED2
:10036400FA12054FFFE53425E02410F8E6FC08E610
:10037400B5070DE5F0B504080536E5367002053518
:100384000534E534700205336405453370B9E53648
:10039400640445357010C2B4AB30AA31A932900060
:1003A4000275F0028017AB30AA31A932900006E43E
:1003B40075F0011205EA900002E475F00112065688
:1003C400AB30AA31A932900004E475F0011206564C
:1003D400E4F535F536E541640445407029120B32E5
:1003E400AB30AA31A93212054FFFAEF04E700A7538
:1003F400F001120637C2B3800DEF64014E7007F5A9
:10040400F0120637D2B3AB30AA31A93212054F64C9
:100414000145F060030204B6E54164104540600301
:100424000204B6AB2DAA2EA92F12054F640445F081
:10043400705FF533753401AB2DE52F2402F9E435F3
:100444002EFAE53425E0FFE53333FEE92FF9EA3EE1
:10045400FA12054FFFE53425E02410F8A6F008A6AB
:10046400070534E534700205336405453370C8D29A
:10047400B3AB30AA31A932E4F5F0120637AB30AA97
:1004840031A932900002E4F5F0120B801209D780F2
:1004940021D2B37580FFAB30AA31A932E4F5F01252
:1004A4000637AB30AA31A932900002E475F001128C
:1004B4000B80E541640845407024120C3EE4F5339A
:1004C400F534B2B37F2C7E01120CBC0534E53470D4
:1004D400020533C39406E5336480948040E4E4F574
:0304E40040F5419F
:0104E70022F2
:10089000120D30120976D2B47580FFD2B3D2B5757D
:1008A00030007531007532087B007A007921120022
:1008B0000E7B007A007923AD22AC21120807E50BEC
:1008C0006401450A7003120AE1E50B6402450A70EF
:1008D00003120A31D3E553943CE55294004007E4F7
:1008E000F50EF50FD2B5C3E55D9405E55C940040C7
:1008F000AE753A00753B00753C087B007A007921A3
:05090000120B41809A7A
:100CBC00D3EF9400EE940040167D70EDD394007445
:0F0CCC0080948040031D80F3EF1F70E41E80E1D1
:010CDB0022F6
:100D3000758901758A66758CFCD2A9D28CD2AF22D6
:03000B000206AA40
:1006AA00C0E0C0F0C083C082C0D075D000C000C016
:1006BA0001C002C003C004C005C006C007758A662F
:1006CA00758CFCC3E50F9403E50E6480948040406A
:1006DA00E5572401F557E43556F556E43555F555F1
:1006EA00E43554F554E47FE87E03FDFCAB57AA5683
:1006FA00A955A854D31206834016B2B5755700758A
:10070A0056007555007554000553E553700205529D
:10071A00E50D6401450C703EE55B2401F55BE435AB
:10072A005AF55AE43559F559E43558F558E47FE84D
:10073A007E03FDFCAB5BAA5AA959A858D3120683BB
:10074A004014755B00755A00755900755800055DAF
:10075A00E55D7002055CD007D006D005D004D00351
:10076A00D002D001D000D0D0D082D083D0F0D0E057
:01077A00324C
:040CDC00021A0000F8
:070D400092B1120D47D2B081
:060D47007F141FEF70FC99
:010D4D002283
:100CF700D2B0120D47D2B1120D47C2B1120D47C281
:040D0700B0020D47E2
:100D1F007E14C2B1120D42D2B1120D471EEE70FCFD
:010D2F0022A1
:040C7300AB07AA061B
:100C7700E4FDEDC39408748094805014EB33120D97
:100C870040C2B0120D47EB25E0FBEA33FA0D80E2D4
:010C9700223A
:100C0400E4FDFC120D47120D47D2B1120D47E4FB6F
:100C1400FAC2B0120D42A2B19200ED25E0FDEC3310
:100C2400FC3000034305010BBB00010AEB64084AD6
:090C340070DFC2B0120D47AF05DC
:010C3D002294
:050C98007E00120C7348
:100C9D00120D47D2B1120D4230B10FC3E53D94FA9A
:0F0CAD00748094805004053D80EEC2B0020D4764
:0A0D5800A200120D40C2B0020D47C8
:100BC800AE07AC03A9055306FE120CF7AF06120CCC
:100BD80098AF01120C73120C9DAB3AE53CF9240254
:100BE800F53CE53BFA3400F53B12054FFFAEF01239
:0C0BF8000C73120C9D1CEC70E0020D1F31
:100A8A008B2FAC07A9055304FE120CF7ECFF120CCE
:100A9A0098AF01120C73120C9D120CF7430401AFAC
:100AAA0004120C73120C9D120C04AB30E532F924BB
:100ABA0002F532E531FA3400F531E48FF0120637E7
:100ACA00152FE52F7007D200120D588007C20012A9
:070ADA000D5880D3020D1F2F
:1009760075300075310075321A7B017D127FA01229
:100986000A8AAE1AAF1B7C007D0A1204FA8E128FF9
:1009960013AE1AAF1B7C007D0A1204FA8C148D1557
:1009A60075300075310075321A7B017D137FA012F8
:1009B6000A8AAE1AAF1B7C007D0A1204FA8E168FC5
:1009C60017AE1AAF1B7C007D0A1204FA8C188D191B
:0109D60022FE
:1009D70085121A85131BAE1AAF1B7C007D0A120401
:1009E700E8E5152FF51BE5143EF51A753A00753B3A
:1009F70000753C1A7B017D127FA0120BC885161A61
:100A070085171BAE1AAF1B7C007D0A1204E8E51997
:100A17002FF51BE5183EF51A753A00753B00753C36
:0A0A27001A7B017D137FA0020BC8AB
:100CE000024000001042EEDEBE7EEDDDBD7DEBDB9E
:060CF000BB7BE7D7B777DC
:10090500E4F537F538AF37EF3395E0FEC3EF9404E0
:10091500EE648094805059A8077410088002C33390
:10092500D8FCF4F5A0E4F538AF38EF3395E0FEC315
:10093500EF9410EE64809480503274422FF8E6B53F
:10094500A0267F0A7E00120CBC74422538F8E665A5
:10095500A06015AF38EF3395E0FEEF2401F541E4D3
:100965003EF5407537048004053880BC0537809511
:01097500225F
:100D0B00C0F9A4B0999282F880903F065B4F666D54
:040D1B007D077F6F62
:100A3100E4F52DF52EF52DF52EE52E452D700575D8
:100A4100905C800BE52E6401452D7003759054AFC9
:100A51002EA8077401088002C333D8FCF452807FAA
:100A6100017E00120CBCAF2EA8077401088002C3DE
:100A710033D8FC4280052EE52E7002052DC3940269
:080A8100E52D6480948040B172
:010A8900224A
:100AE100E4F52DF52EF52DF52EE52E452D70057528
:100AF10090798003759077AF2EA807740108800262
:100B0100C333D8FCF452807F017E00120CBCAF2E9F
:100B1100A8077401088002C333D8FC4280052EE582
:100B21002E7002052DC39403E52D6480948040B995
:010B310022A1
:0A0807008B2D8A2E892F8C308D3145
:10081100E4F532F533E531453070037580FFE4F5D9
:1008210032F533C3E5339531E5306480F8E5326460
:100831008098505AE5332401FFE43532FEEF25E07C
:10084100FFEE33AB2DAA2EA92F8F82F58312057AE5
:100851002415F582740D35F0F583E493F590AF33EB
:10086100A8077401088002C333D8FCF452807F01C9
:100871007E00120CBCAF33A8077401088002C33399
:0E088100D8FC42800533E5337099053280952E
:01088F002246
:10078700020890E493A3F8E493A34003F68001F2F0
:1007970008DFF48029E493A3F85407240CC8C33373
:1007A700C4540F4420C8834004F456800146F6DF42
:1007B700E4800B0102040810204080900CDCE47EEA
:1007C700019360BCA3FF543F30E509541FFEE49337
:1007D700A360010ECF54C025E060A840B8E493A3FE
:1007E700FAE493A3F8E493A3C8C582C8CAC583CA29
:1007F700F0A3C8C582C8CAC583CADFE9DEE780BEE1
:010CF60000FD
:1004E800EF8DF0A4A8F0CF8CF0A428CE8DF0A42E28
:0204F800FE22E2
:1004FA00BC000BBE0029EF8DF084FFADF022E4CCE6
:10050A00F875F008EF2FFFEE33FEEC33FCEE9DECAE
:10051A00984005FCEE9DFE0FD5F0E9E4CEFD22EDF4
:10052A00F8F5F0EE8420D21CFEADF075F008EF2F3E
:10053A00FFED33FD4007985006D5F0F222C398FD2F
:05054A000FD5F0EA22CC
:10054F00BB010A89828A83E0F5F0A3E02250068777
:10055F00F009E71922BBFE07E3F5F009E319228939
:0B056F00828A83E493F5F0740193226C
:10057A00BB0110E58229F582E5833AF583E0F5F0BF
:10058A00A3E0225009E92582F886F008E622BBFE9C
:10059A000AE92582F8E2F5F008E222E5832AF583E2
:0805AA00E993F5F0A3E99322A7
:1005B200BB010789828A83020694500B09C5F02782
:1005C200F7C5F01937F722BBFE0D09F8E325F0F362
:1005D200C5F019E338F322F889828A8374019325DE
:0805E200F0C5F0F8E4933822A3
:1005EA00BB010DC58229C582C5833AC5830206941B
:1005FA005011C58229F808E5F026F618F5F0E582CB
:10060A0036F622BBFE11C58229F808E225F0F5F07C
:10061A00F218E23582F222F8E58229F582E5832A88
:0D062A00F58374019325F0F5F0E493382278
:10063700BB010A89828A83F0E5F0A3F0225006F70E
:0F06470009A7F01922BBFE06F3E5F009F319220B
:10065600F8BB0111E58229F582E5833AF583E8F0D6
:10066600E5F0A3F0225009E92582C8F608A6F02293
:0D067600BBFE09E92582C8F2E5F008F2227A
:10068300EB9FF5F0EA9E42F0E99D42F0E89C45F0CD
:010693002244
:10069400C5F0F8A3E028F0C5F0F8E58215827002F1
:0606A4001583E038F0228E
:00000001FF
